:0400000085EF00F098
:100008001B431B431B431B431B431B431B431B43F8
:100018001B431B431B431B431B431B431B431B43E8
:100028001B431B431B431B431B431B431B431B43D8
:100038001B431B431B431B431B431B431B431B43C8
:100048001B431B431B431B431B431B431B431B43B8
:100058001B431B431B431B431B431B431B431B43A8
:100068001B431B431B431B431B431B431B431B4398
:100078001B431B431B431B4342001B431B431B43A4
:100088001B431B431B431B431B431B431B431B4378
:100098001B431B431B431B4342001B431B431B4384
:1000A8001B431B431B431B431B431B431B431B4358
:1000B8001B431B431B431B431B431B431B431B4348
:1000C8001B431B431B431B431B431B431B431B4338
:1000D8001B431B431B431B431B431B431B431B4328
:1000E80042001B431B431B431B431B431B431B4334
:1000F8001B431B431B431B431B431B431B431B4308
:06010800FF00B8EF85F0D6
:10BFC8000010CE10001709598E0000BF0F10BF0FC8
:10BFD80027BF0F258653B70F297F0F2BCC0000FDF5
:10BFE8000F2CFD0F2EFD0F30FD0F32FD0F34FD0F0E
:10BFF80038FD0F3AC680FD0F3C10FF0F36B70F3ED5
:10C008008EC7E717065134061043E1613506260648
:10C018008EC8494F200D113D018601B70F3E8EC8CD
:10C02800528601B70F2B17062E8EC802170628173F
:10C03800067D8E0F001706BE1706C64D27EB8144F6
:10C048002741814710270139815310270198814CD6
:10C058001027020181501027030481491027042D5D
:10C06800814F1027044881521027047C815A1027D9
:10C0780005A68142102700088EC81F1705D920A9D8
:10C088007EE046300117066E1706815D26161706F4
:10C0980065A6844D26E210BE0F1031A9008010BF9E
:10C0A8000F12203210BF0F1017064BA684812C27C1
:10C0B8000D4D26C431A9008010BF0F122018300181
:10C0C80017063317064617062D5D27AC6D8426A87C
:10C0D800312110BF0F12FC0F10C4F07F0F241F0175
:10C0E80034108D23351030881017084D2610B60FE0
:10C0F80024810225EBBE0F12BF0F1016FF2BBF0FB6
:10C108001017082A16FF221F1017055534108EC85D
:10C11800271705433510108E0F14C6108D285A2680
:10C12800FB8EC82A1705308E0F14C610A6808120F2
:10C138002509817F24051708062005862E1707FF85
:10C148005A26E916055F86201707F4B60F244D26F0
:10C1580017BC0F10270D86201707E41707E1A7A0C3
:10C168003001398601B70F24B60F24810126E7A6CE
:10C1780080A7A01704EFBC0F1226058602B70F246C
:10C18800393001170570170583A6841026FEE95D6E
:10C19800270410BF0F3810FE0F36B60F2B84012767
:10C1A80005FC0F3A1F07FC0F383406FC0F34340621
:10C1B800FC0F323406FC0F303406B60F3C3402B69E
:10C1C8000F2B84012713B60F3E84012707FC0F2E7F
:10C1D80034062005FC0F2E1F06FC0F2C3406B60F64
:10C1E8003D8A8034023B300117050B17051E1705E1
:10C1F80005A6841026FE815D260410BE0F271F2089
:10C2080017045E8EC82A17044EA6A4170457862062
:10C2180017072C1704998E0F001704DAA68426082E
:10C22800312110BF0F2720D6812D2608313F10BF9E
:10C238000F2720CA812E260710BF0F2716FDEA34C4
:10C24800201704C85D1027FE2F1F203520E7A010F7
:10C25800BF0F2720A9300117049C1704AF170496B5
:10C268006D841026FE121706C51704958153277989
:10C27800813A270D810D27EE810A27EA1706AF209C
:10C28800F31703F8B70F4134021703F0B70F3FBB9A
:10C298000F41B70F411703E4B70F40BB0F41B70F6A
:10C2A800411F20F30F3F1F011703D1B70F2ABB0F00
:10C2B80041B70F4135045D27171703C03402BB0F80
:10C2C80041B70F4135027D0F2A2602A7805A26E979
:10C2D8001703A9BB0F4126087D0F2A279F7EC06838
:10C2E8008EC8051703717EC068170642B70F2A1754
:10C2F800038A3402B70F41170382B70F3FBB0F41C0
:10C30800B70F41170376B70F40BB0F41B70F411F57
:10C3180020F30F3F1F013504C003271D17035D34A9
:10C3280002BB0F41B70F41B60F2A813126063502ED
:10C33800A780200235025A26E3170340BB0F41812C
:10C34800FF2612B60F2A813727118138270D813928
:10C3580027097EC2BB8EC8121702FC7EC068300156
:10C36800A68417039C81492704815326053001B709
:10C378000F291703811703945D271F10BF0F3F175D
:10C388000374A684812C2612300117036917037CD5
:10C398005D27071703606D8427037EC0B731211F0F
:10C3A80020B30F3FBE0F3FFD0F3F8D21B60F3FBAA1
:10C3B8000F4026F6B60F29814926098EC82E170286
:10C3C800967EC0688EC83C17028D7EC068C6107DF8
:10C3D8000F3F260BB60F403404A1E024021F89B694
:10C3E8000F403404A0E0B70F40B60F3F8200B70FEC
:10C3F8003FB60F2981492649863A1705421F9817E3
:10C408000263F70F413410A6E4170259A6E0BB0FE8
:10C4180041B70F41A6E417024CA6E0BB0F41B70F86
:10C42800414F170240A68034021702393502BB0F6C
:10C4380041B70F415A26EEB60F41401702277EC674
:10C44800E486531704F986311704F41F988B03B751
:10C458000F411702103410A6E4170209A6E0BB0F1B
:10C4680041B70F41A6E41701FCA6E0BB0F41B70F87
:10C4780041A68034021701ED3502BB0F41B70F41C9
:10C488005A26EEB60F41431701DB7EC6E43001178A
:10C4980002641702775D1027FBDE1702596D8410BE
:10C4A80026FBD5A6A41701BD1701FA16FB7B3001A0
:10C4B8001702431702565D1027FBBD10BF0F3F1729
:10C4C8000234A680812C1026FBAE17022917023CE5
:10C4D8005D1027FBA317021E6D841026FB9ABE0F62
:10C4E8003F1F20E78416FB4130011702091702118C
:10C4F8008100260617008016FB2F108EC8BDA1A448
:10C50800270AE6211027FB70312620F2A621810F89
:10C51800260C10AE223001A6841701E520E0810028
:10C528001027FB54E621B60F2BC58027068501107E
:10C5380027FB45AE2417011F863D170402AE22C40F
:10C54800073414C1012607A6841701192005EC84B5
:10C5580017010E86201703E71701548E0F001701E5
:10C56800AB5D27103514C10126061F20E78420047F
:10C578001F20ED8416FAB28EC88A1700DAB60F2C7F
:10C588001700E28EC88D1700CEB60F2D1700D6B64D
:10C598000F2B840127188EC8911700BBB60F2E17D2
:10C5A80000C38EC8951700AFB60F2F1700B78EC8F7
:10C5B800991700A3FC0F301700A78EC89D17009786
:10C5C800FC0F3217009B8EC8A117008BFC0F341785
:10C5D800008F8EC8A517007FFC0F361700838EC802
:10C5E800A9170073FC0F38170077B60F2B840127A3
:10C5F8000C8EC8AF170060FC0F3A1700648EC8B3E2
:10C60800170054B60F3C17005C8EC8B8170048B620
:10C618000F3D17005016008D30011700D9810026F4
:10C628000CB60F3E17003E17007B16F9FC1700DC0E
:10C638005D1027FA431F20C1041024FA3BF70F3E70
:10C648008E0F008611A780863DA780E7808639A7D0
:10C658008017486D16F9D2A6802705BDC97E20F738
:10C66800398D021F983402444444448D02350284B3
:10C678000F8B30813A25028B077EC97E4F8D044887
:10C6880048484834021702A61700768130251381DE
:10C698003A250A8141250B8147240780078030AB62
:10C6A800E039350239860DBDC97E860A7EC97E8E7F
:10C6B8000F005FBDC96D810D2737810A27338108B7
:10C6C8002718817F2714812025E9818024E5C10F5F
:10C6D80024E15CA780BDC97E20D95D27D65A301FCA
:10C6E800860817025A862017025586081702502016
:10C6F800C28DB26F8439A6808120260220F8301FAF
:10C708003981612506817B24028BE0395F108E0018
:10C7180000A6848DEC81302523813A250A814125A4
:10C728001B81472417800780301E025849584958F2
:10C738004958491E2031A630015C20D5398EC85B86
:10C7480017FF143502B70F3D3506FD0F2CB60F2B1A
:10C7580084012710B60F3E84012704350620021FE6
:10C7680060FD0F2E3502B70F3C3506FD0F3035063C
:10C77800FD0F323506FD0F343506830001FD0F38F5
:10C7880010FF0F36B60F2B840127051F70FD0F3AD7
:10C7980017FDE416F893113C8027058EC861200325
:10C7A8008EC87417FEB1209B0D0A556E69766572A6
:10C7B80073616C204D6F6E69746F72203638303932
:10C7C8000D0A005D20004572726F722069686578F5
:10C7D8000D0A004572726F7220737265630D0A004C
:10C7E8004572726F720D0A00203A00203A20003A12
:10C7F800303030303030303146460D0A0053393051
:10C80800333030303046430D0A004D433638303926
:10C818000D0A004844363330390D0A005357490D84
:10C828000A004469766973696F6E206279207A65B7
:10C83800726F0D0A00496C6C6567616C20696E73D4
:10C848007472756374696F6E0D0A00413D00204271
:10C858003D0020453D0020463D0020583D00205920
:10C868003D0020553D0020533D000D0A50433D003A
:10C8780020563D002044503D002043433D004101E7
:10C888000F2CC94142010F2DC943430FC9110000A4
:10C89800440FC923000045810F2EC94746810F2F39
:10C8A800C94957820F2EC94B58020F30C94D59023A
:10C8B8000F32C94F55020F34C95153020F36C953AD
:10C8C800500FC935000056820F3AC95800000000C1
:10C8D800000000010F3DC95D43010F3DC95D000027
:10C8E8000000000000020F2CC94550010F3CC95A36
:10C8F80000000000000043020F38C9550000000086
:10C90800000041004200440045004600570058001E
:10C91800590055005300504300560044500043430B
:10C92800008603B7801812128615B7801839B680AA
:10C9380018840127F9B6801939B68018840139346A
:10C9480002B68018840227F93502B7801939000029
:10C9580000000000000000000000000000000000CF
:10C9680000000000000000000000000000000000BF
:10C9780000000000000000000000000000000000AF
:10C98800000000000000000000000000000000009F
:10CF4800007EC00000000000007EC06800000000F5
:10CF5800007EC97E00000000007EC696000000002A
:10CF6800007EC96D00000000007EC9780000000046
:10CF780000000000000000000000000000000000A9
:10CF88000000000000000000000000000000000099
:10CF98000000000000000000000000000000000089
:10CFA8000000000000000000000000000000000079
:10DFC800008D0327FC39B6801885012706B680190D
:10DFD800847F394F398D243402810D270BB780197E
:10DFE8000C799679917825100F798D0F860DB78069
:10DFF800198D08860AB780193502393402B6801897
:10E00800850227F935023910CE01EE7EE05A122634
:10E018000A9E6FA684811226026E848E02186F8370
:10E02800300126FA8E02176F809F19A60243A702B5
:10E03800A10226063001630120F19F719F279F23CB
:10E048003089FF389F211F148EE0D3CE0076C61288
:10E05800BDE1B3CE00A7C604BDE1B3863997F0BDD4
:10E06800E4BF8E00B59F8DCEEBD3C60AEF815A264A
:10E07800FB8603B780188615B780188EE108BDF0B7
:10E08800E78EE0CB9F6F8655976E200412BDE4D9CA
:10E098007EE4273B1040FF00EBD30C8426020C8360
:10E0A800B600007EE1C47EE1C37EE0D27EEBD38081
:10E0B8004FC7525932E222E32F1DE2C2E1D30000DA
:10E0C800000000000000000000003638303920450C
:10E0D8005854454E4445442042415349430D284332
:10E0E800292031393832204259204D4943524F5363
:10E0F8004F46540D0D0034169E76DC789F6AD76C17
:10E10800976D35960F738E00F4C601BDE000810847
:10E1180026075A27EF301F20348115260A5A27E48C
:10E128008608BDE01420F681031A012705810D2613
:10E138000D4F3401BDF0A76F848E00F33581812027
:10E1480025C9817B24C5C1FA24C1A7805CBDE01420
:10E1580020B92705BDEEC69F7A6E9F007A7EE5A896
:10E1680096732603BDE0050F73975310260C6A9724
:10E17800567EEE24A680A7C05A26F939399D8227F3
:10E18800FB7EEA053B813A240A812026020E7C8028
:10E198003080D039F3C5F439F3DE00ADF66AF6BF46
:10E1A800EED9EE0AEC86EE9FEE29EE15F76FF737FB
:10E1B800F740F8B1F8E3F805FA6BF83FFF3DEE34A5
:10E1C800EE51EE58E19FEC77FA73FB33FB0379F1DC
:10E1D8001079F1077BF2177BF2DC7FF84850EA5E92
:10E1E80046EA5D464FD247CF5245CDA7454C53C569
:10E1F80049C6444154C15052494ED44FCE494E505D
:10E2080055D4454EC44E4558D44449CD524541C4D1
:10E218005255CE524553544F52C55245545552CE7D
:10E2280053544FD0504F4BC5434F4ED44C4953D401
:10E23800434C4541D24E45D7455845C354524FCE1D
:10E2480054524F46C64445CC4445C64C494EC55227
:10E25800454E55CD454449D4544142A854CF535511
:10E26800C2544845CE4E4FD4535445D04F46C6AB02
:10E27800ADAAAFDE414EC44FD2BEBDBC46CE55534B
:10E28800494EC75347CE494ED44142D35553D25233
:10E298004EC45349CE504545CB4C45CE535452A459
:10E2A8005641CC4153C3434852A44154CE434FD363
:10E2B8005441CE4558D04649D84C4FC7504FD353F8
:10E2C80051D2484558A44C454654A452494748544D
:10E2D800A44D4944A4494E4B4559A44D45CD5641FA
:10E2E800525054D2494E5354D2535452494E47A4D3
:10E2F800E4EDE638E695E695E695E6C6E692F06F33
:10E30800E6F4E7A1E5BFE886EAD7E7DBE62DE5A175
:10E31800E672E5C3EEE0E5E8EEE7E5F9E4BDE19194
:10E32800FA66FA67FCE2FC26FF81FD6CF8F24E46BD
:10E33800534E52474F4446434F564F4D554C425308
:10E3480044442F304944544D4F534C535354434E37
:10E358004644414F444E494F464D4E4F494544531C
:10E3680055464E45204552524F520020494E2000F6
:10E378000D4F4B0D000D425245414B003064C61203
:10E388009F0FA68480802615AE019F119E3B27090A
:10E398009C1127099E0F3A20E59E119F3B9E0F4D29
:10E3A800398D17DE4133419E433001A68236029CE7
:10E3B8004726F8DF45394F58D31FC3003A250810C0
:10E3C800DF1710931725EEC60CBDE4D9BDF0ABBD21
:10E3D800F0FA8EE36D3A8D318D2F8EE3A2BDF0E712
:10E3E80096684C2703BDF510BDF0AB8EE3AFBDF0CA
:10E3F800E7BDE143CEFFFFDF6825F69F839D7C27BD
:10E40800F0250BBDEF9C7EE576A6807EF0FCBDE78F
:10E41800199E2B9FF1BDEF9CD7038D4C2512DC472D
:10E42800A384D31BDD1BEE843702A7809C1B26F830
:10E4380096F3271CDC1BDD43DB038900DD41BDE3CC
:10E44800E0CE00EF3702A7809C4526F89E419F1B2F
:10E458008D368D02209B9E19EC8427213304A6C09B
:10E4680026FCEF84AE8420F0DC2B9E19EE8427096D
:10E4780010A3022306AE8420F31A019F473926FB16
:10E488009E196F806F809F1B9E19BDE66D9E279F0A
:10E4980023BDE5A19E1B9F1D9F1F8E00C99F0BAE2C
:10E4A800E410DE216FE20F2D0F2E0F086E84868098
:10E4B8009708BDE73BBDE3BB326226049E0F328559
:10E4C800C609BDE3F5BDE69ADC683416C6A0BDE909
:10E4D800FDBDE8D1BDE8CFD654CA7FD450D750107F
:10E4E8008EE5257EE9788EF210BDF35F9D8281A4CA
:10E4F80026059D7CBDE8CFBDF3B8BDE974DC3B348F
:10E5080006868034021CAF8D609E839F2FA68027CD
:10E5180007813A27227EEA05A68197002772EC80B8
:10E52800DD689F83968C270F865BBDE0149668BDD7
:10E53800F517865DBDE0149D7C8D0220C827294D06
:10E54800102A01B881FF270F819E22C9BEE0F64834
:10E558001F893A9D7C6E949D7C8197102714ED7ECF
:10E56800EA059E19301F9F3339BDE005270A81034C
:10E57800271281132703977339BDE00527FB20EE87
:10E588009D8220021A0126319E839F2F0600326247
:10E598009E688CFFFF27069F299E2F9F2D8EE3B331
:10E5A8000D00102AFE427EE41C260EC6209E2D1069
:10E5B80027FE169F839E299F6839272CBDEB6F3451
:10E5C800069E279D82270CBDE9FBBDEEC6301F9C29
:10E5D8007122181F10A3E125121F0383003A250B8F
:10E5E800931B2507DF219F277EE4CC7EE4069D82CE
:10E5F8001027FE94BDE4CC20191F899D7CC1A0275B
:10E6080016C1A12645C603BDE3F5DE839E6886A133
:10E6180034528D037EE5449D82BDE7198D4030015B
:10E62800DC2B10936822029E19BDE4AB2517301F1E
:10E638009F833926FD86FF973BBDE3BB1F148121CD
:10E64800270BC6048CC60E7EE4087EEA0535529F69
:10E6580068DF838D068C8D069F8339C63A865FD71F
:10E66800015F9E831F98D6019701A68427EC340486
:10E67800A1E027E63001812227EA4C2602300181F9
:10E688008626E70C0420E3BDE8CF9D82818127051B
:10E69800C6A2BDE9FD964F26130F048DB64D27BAC5
:10E6A8009D7C818426F50A042AF19D7C9D82102593
:10E6B800FF657EE57CBDEE94C681BDE9FD3402812F
:10E6C800A1270481A026830A53260535047EE63A4D
:10E6D8009D7C8D06812C27EF35849E749F2B2461A9
:10E6E80080309701DC2B811822DB58495849D32BFD
:10E6F8005849DB018900DD2B9D7C20E2BDEAE09FC3
:10E708003BC6AEBDE9FD96063402BDE8E4350246D7
:10E71800BDE8D610270C289E52DC2110A302241134
:10E728009C1B250DE684BDEC969E4DBDEDCC8E0060
:10E73800569F4DBDEDFEDE4D9E3B3726A78410AF9C
:10E7480002393F5245444F0D007EE40896092707D9
:10E758009E319F687EEA058EE780BDF0E79E2F9F79
:10E768008339C6169E68300127DF8D01398122263C
:10E778000BBDE9D2C63BBDE9FDBDF0EA8E00F36FE3
:10E78800848D06C62CE7842016BDF0FABDF0F7BDCF
:10E79800E143240532647EE5CBC62E399E33864F8D
:10E7A80097099F35BDEAE09F3B9E839F2B9E35A628
:10E7B80084260996092651BDF0FA8DCD9F839D7C4C
:10E7C800D60627239E8397018122270E301F4F9755
:10E7D80001BDE135863A9701862C9702BDECA7BDAD
:10E7E800E9D7BDE7562006BDF45DBDF37E9D8227BF
:10E7F80006812C1026FF529E839F359E2B9F839D5A
:10E80800822721BDE9FB209C9F83BDE69A30014DFC
:10E81800260AC606EE812741EC81DD31A684818671
:10E8280026E620989E35D6091026FD3AA6842706A6
:10E838008EE8757EF0E7393F4558545241204947E4
:10E848004E4F5245440D0026049E742003BDEAE055
:10E858009F3BBDE3BB2704C60020471F143003BD00
:10E86800F35FA66897549E3BBDF10DBDF37E3069FA
:10E87800BDF3E1E068270CAE6E9F68AEE8109F8399
:10E888007EE54432E8129D82812C26F49D7C8DBD64
:10E898008D131CFE7D1A010D0625032A998C2B96D3
:10E8A800C6187EE4088D6E4F8C34043402C601BD50
:10E8B800E3F5BDE9B10F3F9D8280AD2513810324A7
:10E8C8000F810149983F913F2564973F9D7C20E93E
:10E8D800D63F26331024006B8B0724679906102730
:10E8E800047789FF340248ABE08EE20D30863502AA
:10E8F800A18424558D9C34028D299E3D3502261D08
:10E908004D1027006A204B0806598D098EE959D702
:10E918003F0F0620D99E837EE66D64EA7DA184249C
:10E928003120D3EC0134068D08D63F16FF7B7EEAF2
:10E9380005D654A68435203404D64F9E50DE523472
:10E94800546EA49E74A6E0272681642703BDE8D1EF
:10E958009F3D3504815A2719817D271554D70A35DB
:10E9680052975C9F5DDF5F3504D761D854D762D674
:10E978004F39BDFBFB0F069D7C24037EF45DBDEB88
:10E988002B2450812E27F481A7274081A627E381D5
:10E9980022260A9E83BDECA19E649F833981A3260B
:10E9A8000D865ABDE8E8BDEB7643537EEC7D4C27D7
:10E9B8002E8D06BDE8E4C6298CC6288CC62CE19F9E
:10E9C800008326020E7CC6027EE408867DBDE8E848
:10E9D8007EF634BDEAE09F52960626957EF35F9D4B
:10E9E8007C1F89589D7CC13823037EEA053404C105
:10E9F8002A251EC130241C8DC0A6E4BDE8E48DBCC8
:10EA0800BDE8D43502DE523442BDEE9435023406F8
:10EA18008E8D9E3504BEE0FB3AAD947EE8D1864FDC
:10EA28009703BDEB76DD01BDF395BDEB760D0326AF
:10EA3800069401D40220049A01DA027EEC7DBDE836
:10EA4800D6261096618A7F945D975D8E005CBDF333
:10EA5800E120360F060A3FBDEDE0D7569F589E5F6E
:10EA6800BDEDE296563404A0E0270786012403D6BC
:10EA780056409754DE585C5A2604D654200BA6807C
:10EA8800A1C027F3C6FF240150CB0159D40A27029D
:10EA9800C6FF7EF3C7BDE9FBC6018D089D8226F53A
:10EAA800395F9D82D70597379D828D401025FF16C7
:10EAB8005FD7069D7C25048D33250A1F899D7C25FB
:10EAC800FC8D2924F8812426060306CB809D7CD75B
:10EAD800389A088028102700750F089E1BDC379C81
:10EAE8001D271210A381273E300520F381412504FC
:10EAF800805B80A5398E0074EEE41183EA1527281F
:10EB0800DC1FDD43C30007DD419E1D9F47BDE3E0D9
:10EB18009E419F1F9E459F1D9E47DC37ED814F5F9D
:10EB2800ED84ED02A7049F393990800000009D7C98
:10EB3800BDE8CF96542B5DBDE8D1964F819025084E
:10EB48008EEB68BDF3E1264CBDF413DC5239DC05CD
:10EB58003406125F9E3734148DD435349F37DE5215
:10EB680034605C9D82812C27EBD703BDE9F535061F
:10EB7800DD059E1D9C1F2721DC3710A3842706EC8A
:10EB880002308B20EFC6129605260BD603E1042728
:10EB980059C6108CC6087EE408CC0005DD64DC3755
:10EBA800ED84D603E704BDE3F59F41C60B4F0D0581
:10EBB80027053506C30001ED058D5DDD6430020AC9
:10EBC8000326E89F0FD30F1025F7FC1F01BDE3F9BB
:10EBD800830035DD1F4F301FA7059C0F26F89E4187
:10EBE800961F9341ED029605262DE604D7034F5F45
:10EBF800DD643506DD5210A305243ADE6427048D52
:10EC080017D35230020A0326E7EDE358495849E37F
:10EC1800E1308B30059F393986109745EC05DD17B3
:10EC28004F5F5849250F086509642404D317250543
:10EC38000A4526EE397EEBD01F40931F214F0F0661
:10EC4800DD50C6907EF3CDBDE8D1CE01F0BDF527ED
:10EC580032628E01EF200B9F4D8D5C9F58D756393D
:10EC6800301F86229701970230019F629F58C6FF86
:10EC78005CA680270C91012704910226F3812227A4
:10EC880002301F9F64D756DE62118301F022078D80
:10EC9800C69E62BDEDCE9E0B8C00F12605C61E7E7B
:10ECA800E4089656A700DC58ED0286FF97069F0DEC
:10ECB8009F5230059F0B390F074F3406DC23A3E022
:10ECC800109321250ADD239E2330019F253584C614
:10ECD8001A030727CA8D04350420DE9E279F234F79
:10ECE8005FDD4B9E219F478E00C99C0B27048D3208
:10ECF80020F89E1B9C1D27048D2220F89F419E41D1
:10ED08009C1F2735EC02D341DD41A6012AF0E60419
:10ED180058CB053A9C4127E88D0820F8A601300217
:10ED28002A14E6842710EC02109323220910934733
:10ED380023049F4BDD473005399E4B27FB4FE68464
:10ED48005AD347DD439E239F41BDE3E29E4BDC45FA
:10ED5800ED029E45301F7EED1CDC523406BDE9B144
:10ED6800BDE8D435109F62E6849E52EB842405C624
:10ED78001C7EE408BDEC969E62E6848D109E4D8D47
:10ED8800228D0C9E628D1CBDECD57EE8F6AE02DEAF
:10ED9800255C2004A680A7C05A26F9DF2539BDE8DE
:10EDA800D49E52E6848D182613AE07301F9C232666
:10EDB800083404D323DD233504300139AE02399CED
:10EDC8000D26079F0B301B9F0D4F398D037EEC7C62
:10EDD8008DCC0F065D39BDEE97C601BDECF6965396
:10EDE800BDEC9AA78432627EECD58D0220DF8DE0DF
:10EDF800275EE684398D484FE1842303E6844F3447
:10EE080006BDEC989E4D8D9B35043A3504BDEDCE7C
:10EE180020D58D2BA0844020DFC6FFD7539D82814B
:10EE2800292705BDE9FB8D2D8D1527245F4AA1846F
:10EE380024CD1F89E08450D15323C4D65320C0BDAC
:10EE4800E9F5EEE4AE659F4DA664E66432671F35CA
:10EE58007EEBD39D7CBDE8CFBDEB724D26F20E82D2
:10EE6800BDEE0F102702DEDE839F833AA68434525C
:10EE78006F849D82BDF45D3552A784DF83398D0789
:10EE88009F2BBDE9FB20CEBDE8CF96542BC2964FF1
:10EE9800819022BCBDF4139E52398DEEE6847EEC3F
:10EEA8007C8DDB9E2BE784393401BDE719BDE4A7CF
:10EEB8009F66350127129D82271381A726099D7C0D
:10EEC8002706BDE719270639CEFFFFDF2B32629EE2
:10EED80066BDF0ABBDE19CEC8426037EE4279F660B
:10EEE800EC0210932B22F4BDF517BDF0F79E668D4A
:10EEF80010AE9F0066CE00F4A6C027D5BDF0FC205A
:10EF0800F73004108E00F4A68027512B15813A267D
:10EF18000DE684C18427F0C18327EC8C86218D30CF
:10EF280020E5CEE0E981FF2604A6803345847F33BF
:10EF38004A6DC427E7A0C42AF6ABC4EE414A2B06A3
:10EF48006DC02AFC20F7A6C48D066DC02AF820B72C
:10EF5800108C01ED2406847FA7A06FA4399E83CE70
:10EF680000F30F430F44A68027210D43270FBDEB65
:10EF78002B241881302504813923100F4381202741
:10EF88000A9742812227380D442719A7C0270681EE
:10EF98003A27CF20D16FC06FC01F308300F18E0099
:10EFA800F29F8339813F2604868720DF8127261335
:10EFB800CC3A83EDC10F42A68027D0914227CCA737
:10EFC800C020F481302504813C25C0301F34500F07
:10EFD80041CEE0E90F42334AA6C4273110AE41AE14
:10EFE800E4E6A0E08027FAC180263832623540DAAC
:10EFF8004296412606C1842606863AEDC12094E74A
:10F00800C0C18626020C44C18227AA2086CEE0EE23
:10F01800034126C03550A680A7C0BDEB2B25EC03C5
:10F028004320E80C424A27AE313FE6A02AFC20AF35
:10F0380027368D0139273E819F2753812C27378119
:10F048003B2760BDE8E4960634022606BDF524BDDC
:10F05800EC9F8D573504BDE1355D26089D82812CD6
:10F0680027148D549D8226CF860D2051BDE135276A
:10F07800F7966C26F339BDE135270AD66CD16B2596
:10F08800068DE5201ED66CD06A24FC502010BDEEFB
:10F098009281291026F92FBDE135D06C23058D18F2
:10F0A8005A26FB9D7C7EF074BDECA1BDEDE05C5A58
:10F0B80027C3A6808D0720F786208C863F7EE01424
:10F0C8008EF60B2009BDF27A035403622003BDF2C9
:10F0D8007A5D102702808E005C1F895D276CD04FF7
:10F0E8002769250A974F966197548E004F50C1F8AB
:10F0F8002F594F6401BDF205D6622A0B63016302E2
:10F108006303630443890097639653996097539602
:10F1180052995F97529651995E97519650995D977B
:10F12800505D2A4425028D5D5F9650262E96519794
:10F13800509652975196539752966397530F63CBB5
:10F1480008C1282DE44F974F9754398D6D5F20A83B
:10F158005C086309530952095109502AF3964F3440
:10F1680004A0E0974F23DE8C250808638600976388
:10F17800200C0C4F2728065006510652065324042B
:10F188008D0D27EE39035403500351035203539E48
:10F198005230019F5226069E5030019F5039C60AB0
:10F1A8007EE4088E0012A6049763A603A704A602AD
:10F1B800A703A601A702965BA701CB082FE89663D1
:10F1C800C008270C6701660266036604465C26F4DD
:10F1D8003981000000008D6327608D7886009713C1
:10F1E800971497159716D6538D22D663D78BD65278
:10F1F8008D1AD663D78AD6518D12D663D789D65041
:10F208008D0CD663D788BDF3567EF1672795439654
:10F2180013562726241696169B6097169615995FFF
:10F2280097159614995E97149613995D4697130649
:10F23800140615061606634F20D539EC0197618A26
:10F2480080DD5DD661D854D762EC03DD5FA6849774
:10F258005CD64F394D27169B4F464928108B80970F
:10F268004F270C9662975439965443200232621005
:10F278002AFED27EF1DDBDF3AA270D8B0225F40FFD
:10F2880062BDF1180C4F27EB398420000000BDF354
:10F29800AA8EF2C85FD762BDF35F8C8D9E2773007C
:10F2A8004F8DB10C4F27CC8E0013C604D703C6016F
:10F2B8009650915D26139651915E260D9652915F58
:10F2C8002607965391602601431FA859240AE78010
:10F2D8000A032B34272EC6011F8A250E0860095FF2
:10F2E800095E095D25E32BC820DF9660905397607F
:10F2F800965F9252975F965E9251975E965D925096
:10F30800975D20D8C64020D0565656D7638D087EC4
:10F31800F167C6147EE4089E139F509E159F5239CC
:10F328003402EC0197548A80DD500F63E684AE0303
:10F338009F52D74F35828E004520068E00408C9E06
:10F348003B964FA78496548A7F9450A7019651A75D
:10F3580002DE52EF0339966197549E5C9F4F0F630C
:10F36800965E975196549E5F9F5239DC4FDD5C9EA6
:10F37800519F5E9E539F604D39D64F2708D65459EA
:10F38800C6FF250150398DF1D7500F51C6889650C8
:10F398008080D74FDC74DD52976397547EF1630FFA
:10F3A8005439E68427D3E601D8542BD1D64FE184CB
:10F3B800261DE601CA7FD450E1012613D651E10289
:10F3C800260DD652E1032607D653E0042601395606
:10F3D800D85420ABD64F273DC0A096542A05035BCE
:10F3E800BDF1C68E004FC1F82E06BDF1F90F5B398D
:10F3F8000F5B96544906507EF205D64FC1A0241DD6
:10F408008DD2D7639654D754808086A0974F965351
:10F4180097017EF163D750D751D752D753399E748D
:10F428009F549F4F9F519F529F479F452564BDFB07
:10F438009A812D260403552004812B26049D7C25C2
:10F4480051812E2728814526289D7C256481A72760
:10F458000E812D270A81A62708812B270420060361
:10F46800489D7C254C0D4827080047200403462664
:10F47800CC96479045974727122A09BDF2CD0C47ED
:10F4880026F92007BDF2B50A4726F996552A8E7E39
:10F49800F634D645D046D7453402BDF2B53504C05A
:10F4A800308D022098BDF37ABDF3C78E00407EF1FF
:10F4B8000DD6475858DB475880303404ABE097479F
:10F4C800209F9B3EBC1FFD9E6E6B27FD9E6E6B288A
:10F4D800008EE3A98D0CDC68DD50C69043BDF3D1E6
:10F4E8008D037EF0E7CE01F18620D6542A02862DC0
:10F4F800A7C0DF6497548630D64F102700C64FC187
:10F508008022088EF50BBDF21586F797458EF50615
:10F51800BDF3EB2E0F8EF501BDF3EB2E0EBDF2B54C
:10F528000A4520F1BDF2CD0C4520E2BDF0FFBDF447
:10F5380013C60196458B0A2B09810B24054A1F899E
:10F5480086024A4A9747D7452E0DDE64862EA7C005
:10F558005D27048630A7C08EF610C6809653AB038D
:10F5680097539652A90297529651A90197519650CE
:10F57800A98497505C565928E32403C00B50CB2F1D
:10F5880030041F98847FA7C00A452604862EA7C08A
:10F5980053C4808CF63426C4A6C2813027FA812E43
:10F5A8002602335F862BD647271C2A03862D50A7B1
:10F5B800428645A741862F4CC00A24FBCB3AED432F
:10F5C8006F452004A7C46F418E01F1398000000007
:10F5D80000FA0A1F0000989680FFF0BDC00001865F
:10F5E800A0FFFFD8F0000003E8FFFFFF9C00000029
:10F5F8000AFFFFFFFF964F27020354399F64BDF3AC
:10F608007A8D058D088E00407EF2159F64BDF375D6
:10F618009E64E680D7559F648DEE9E6430059F6496
:10F62800BDF10D8E00450A5526EE39BDF3B82B1FE6
:10F6380027158D10BDF37A8D0E8E00408DCA8EF27F
:10F6480010BDF10D7EF4399EB19F509EB39F52BEFE
:10F65800F6BB9F5DBEF6BD9F5FBDF21BDC8AC3652E
:10F668008BDDB3DD52DC88C9B08905DDB1DD500F13
:10F67800548680974F961597637EF16740E64DABA9
:10F68800BDF3AA8EF704D661BDF2D4BDF3AA8DB43A
:10F698000F62965CD64FBDF1078EF709BDF104964F
:10F6A8005434022A09BDF0FF96542B05030ABDF60F
:10F6B800348EF709BDF10D35024D2A03BDF6348E9F
:10F6C800F70E7EF63B83490FDAA27F0000000005A3
:10F6D80084E61A2D1B862807FBF887996889018715
:10F6E8002335DFE186A55DE72883490FDAA2A15417
:10F6F800468F138F524389CD8EF76ABDF10D7EF682
:10F70800BFBDF37A0F0A8DF68E004ABDF3808E00D6
:10F7180040BDF35F0F54960A8D0C0D4F1027FA7EEB
:10F728008E004A7EF2DA34027EF6ED81490FDAA2C3
:10F73800965434022A028D24964F3402818125057D
:10F748008EF2108DDE8EF79FBDF63B350281812546
:10F75800068EF76ABDF10435024D2A037EF6343968
:10F768000B76B383BDD3791EF4A6F57B83FCB0106A
:10F778007C0C1F67CA7CDE53CBC17D1464704C7D42
:10F78800B7EA517A7D6330887E7E9244993A7E4CFE
:10F79800CC91C77FAAAAAA138100000000037F5E4C
:10F7A80056CB7980139B0B6480763893168238AADF
:10F7B8003B20803504F334813504F3348080000025
:10F7C8000080317217F8BDF3B8102FF3C78EF7F128
:10F7D800964F808034028680974FBDF10D8EF7F6E4
:10F7E800BDF2DA8EF210BDF1048EF7DCBDF63B8E69
:10F7F800F7FBBDF10D3504BDF4E48EF8007EF2157B
:10F80800BDF3AA8EF60BBDF35F27674D26037EF185
:10F81800858E004ABDF3805F96612A10BDF4398E4B
:10F82800004A9661BDF3EB260343D601BDF3973436
:10F8380004BDF8058E004ABDF2158D363502461016
:10F8480025FDB2398138AA3B29077134583E5674D0
:10F85800167EB31B772FEEE3857A1D841C2A7C6302
:10F8680059580A7E75FDE7C680317218108100006C
:10F8780000008EF883BDF215BDF37A964F81882576
:10F88800037EF2A7BDF43996018B8127F44A34022E
:10F898008E0040BDF1048EF888BDF64A0F6235022D
:10F8A800BDF29339BDF3B82B037EF43903548DF9B7
:10F8B8007EF634BDFD20326286019798BDE4A7101C
:10F8C80025ED82BDEF401F208300F5D797DC2BBDC7
:10F8D800F517BDF0F78E00F4D69826255FBDFA46D9
:10F8E800BDFF78250B80303402860A3DEBE020ED21
:10F8F800C001C90181412605BDF0A720BB814C2666
:10F908000B8D310F98BDF0A720C33262810D260DF3
:10F918008D22BDF0A78E00F49F837EE45081452799
:10F92800F181512606BDF0A77EE4278D0220AD8126
:10F938002026108CC6F9A6842708BDE01430015A89
:10F9480026F439814426486D8427F78D045A26F712
:10F95800390A97311F3121A621A7A426F8398149F0
:10F9680027138158270D8148265C6F841F10830058
:10F97800F5D7978DBFBDFA46810D278E811B2725A8
:10F98800810826228C00F427EC8D458DC420E68161
:10F998004326CB6D84270EBDFA46250220F5A780A5
:10F9A8008D375A26EE39D697C1F9260220C734106A
:10F9B8006D8026FCE682E701ACE426F83262A78077
:10F9C8008D170C9720AF810826128D045A26FB3913
:10F9D8008C00F427D0301F86087EE014814B270561
:10F9E800805327013934028D1E3402A68427166DF0
:10F9F8006126068DE430012003BDF990A684A1E4B8
:10FA080026E95A26E635A0BDE000817F24F9815F0A
:10FA18002602861B810D270E811B270A81082706CF
:10FA2800812025E31A0139864F978C398600D679CB
:10FA38001D7EEC7DBDE9F8DC1F3406BDEAE0BDE9BA
:10FA4800F535061E109C1F26517EEC7D9D7CBDE978
:10FA5800F8BDEAE03410EC02109321230493272325
:10FA680012E684BDECF63410AE62BDEDCC3550AF75
:10FA7800423440BDEEC134045D271FC6FF812927EB
:10FA880003BDEEC13404BDE9F5C6AEBDE9FD8D2E5A
:10FA98001F13AE62A684A06124037EEBD34CA1E4BD
:10FAA8002402A7E4A6611E89AE025A3A4D270DA189
:10FAB800E42302A6E41F891E31BDE1B33596BDE8F3
:10FAC800E47EEDDDBDE9F8BDEE943404BDE9FBBD8F
:10FAD800E8E4BDE9F596062605BDEE972003BDEEE0
:10FAE8002D3404E661BDEC9835062705A7805A2613
:10FAF800FB7EEE24BDE9F8BDE8E4C60134049606B1
:10FB08002610BDEE97E7E42791BDE9FBBDE8E4BD0B
:10FB1800E8D49E523410BDE9FBBDFAFD3414BDE9AA
:10FB2800F5AE63BDEDE23404E1662523A661271C2A
:10FB3800E6665A3A3184EE62E661A6E4A0664CA114
:10FB480061250CA680A1C0260C5A26F7E666215F1F
:10FB580032677EEC7C6C66302120D98126265C32A7
:10FB6800620F520F538E00529D7C814F271281489D
:10FB780027239D82200C81381022EE4AC6038D2A45
:10FB88009D7C25F20F500F510F060F630F54C6A02E
:10FB9800D74F7EF1679D7C250BBDEB2B25E6814772
:10FBA80024E28007C6048D0220EB680169841025D1
:10FBB800F5EC5A26F58030AB01A7013935400F0620
:10FBC8009E839D7C8126279981B0275E81FF260828
:10FBD8009D7C8183102700AB9F836EC49E68300193
:10FBE80026D9C6167EE408AE9F00838CFF831027B3
:10FBF80000748D238DE6BDE9F8C680D708BDEAE01C
:10FC08008D25BDE9F5C6AEBDE9FD9E4BDC83ED84CF
:10FC1800DC39ED027EE692C6B0BDE9FDC680D708A4
:10FC28008A80BDEAE59F4B7EE8D18DEB3410BDE9B3
:10FC3800F08DF43540C632AE4227A9109E83EEC43B
:10FC4800DF83A6043402EC84EE023476BDF380BD73
:10FC5800E8CF3576ED84EF023502A7049D821026A1
:10FC6800ED64109F83399D7C8D0934108D2D3540AE
:10FC7800AFC4395F9D7C240680301F899D7C9E8D92
:10FC8800583A398DEEAE843410BDE9F08E004F96A7
:10FC9800062707BDEDE09E52960639C6AEBDE9FDC2
:10FCA8007EEEC61027EEEDBDE719BDE4A79F939D34
:10FCB80082271081A7263B9D7C27048D242004865B
:10FCC800FF972BDE938CEEC4ECC42706EC42932BF3
:10FCD80023F49E938D15BDE4C79E93BDE4977EE4FF
:10FCE80027BDE7197EE1BCA6C0A78011931B26F7A4
:10FCF8009F1B39BDFC1B9D7C8122260BBDE9D2C60A
:10FD08003BBDE9FDBDF0EA327EBDE7CE3262BDEA19
:10FD1800E09F3BBDE8D48E00F34FBDECA57EE756CF
:10FD2800BDE7199E2B399E919F2B7EE4A7BDE4CC9D
:10FD3800CC000ADD95DD8F5FDD919D8224068DE084
:10FD48009F959D82271BBDE9FB24068DD39F919D1E
:10FD580082270EBDE9FB24068DC69F8F2749BDE18A
:10FD6800BC8DC39F939E958DBF9C93253A8D1CBDDA
:10FD7800FE40BDE4958DAF9F938D3A8D0F8D36BDB6
:10FD8800FEDBBDE4CCBDE4957EE427864F97989EC4
:10FD980093DC958D150D982602ED02AE848D0BD35C
:10FDA8008F250481FA25EE7EEBD33406EC843506E4
:10FDB80026023262399E19301F30018DED30033032
:10FDC80001A68427F49F0F4A270C4A272A4A26EFC0
:10FDD8008603A78020E7EC016A0227014FE6036A41
:10FDE8000427015FED01DD2BBDE4A79E0F25E1DCB3
:10FDF800476C80ED8420C66F84AE01AE029F472019
:10FE0800EA9E1920049E8330018D9F300230019FA5
:10FE1800839D7C4D27EF2AF99E8381FF27EF81A2DE
:10FE280027128184270E818126E79D7C81A02704E3
:10FE380081A126DB9D7C25049D8220D79E833410DA
:10FE4800BDE7199E83A682BDFF7825F930011F10F2
:10FE5800E061C0052720250A3384503085BDFD2A7E
:10FE680020149F479E1B9F435030859F419F1BBD79
:10FE7800E3E09E459F8335108601A784A702A70467
:10FE8800D62B2604C6016C02E701D62C2604C6012F
:10FE98006C04E7039D82812C279A209C9E19301FB1
:10FEA8003001EC02DD68BDFDE930033001A684278E
:10FEB800EF4A271B800226F334108EFF38BDF0E787
:10FEC800AEE4EC01BDF517BDF510BDF0A735103453
:10FED80010EC01DD52BDFBC3BDF5243540C605302D
:10FEE80001A68427055AA7C020F530C45D27BE3176
:10FEF800C433C5BDFD2A30A420B3554C2000BDEE47
:10FF0800C98E01F0C60434045F86040853095259A7
:10FF18004A26F85D260AA6E44A27058C01F0270C34
:10FF2800CB30C1392302CB07E7806F8435045A26CA
:10FF3800D532628E01EF7EECA181302504803A80B3
:10FF4800C63981891027FDAB7EEA05000000000054
:10FF58000000000000000000000000000000000099
:10FF68000000000000000000000000000000000089
:10FF78000000000000000000000000000000000079
:10FF88000000000000000000000000000000000069
:10FF98000000000000000000000000000000000059
:10FFA8000000000000000000000000000000000049
:10FFB80000C7D5009B009E00AA00A7C77C00A4E04C
:10FFC800467E306D79335B5F707F7B771F4E3D4F88
:10FFD80047414444523A253034582C444154413A1C
:10FFE800253032580D0A000D0A4D455A3638303939
:07FFF8004C45440D0A000016
:020000040001F9
:10000000080E0001B16F000E0401186F1969C9686C
:10001000000E086F0969C768000E106F1169C86883
:100020002093C292CA920099C698090E436F400E5F
:10003000446F000E456F000E476F4691468B468F0A
:100040000095BE84C69400970187C686009B018BED
:10005000C68A20912181CA802095C284CA940093C7
:10006000BE82C6920091BE90C690010E0201D56F6D
:10007000A00ED46FD189D18B0401009FC68E070ECC
:100080000201766F0401009DBE8CC69C260E020103
:10009000076FD28FEF0E456EFF0E466E09EC86F0AD
:1000A0001F0E0201636F1E0E646F1D0E676F1C0E24
:1000B000686F000E0001D56F020ED86F030ED96F66
:1000C0007F0EDA6F7F0EDB6F020EDC6F080EDD6FC6
:1000D000100EDE6F400EDF6F000ED76F820ED66FF0
:1000E000010ED56F020ED86F030ED96F060EDA6FB0
:1000F0007F0EDB6F010EDC6F040EDD6F100EDE6F06
:10010000400EDF6F000ED76F820ED66F040ED56FD4
:100110002A0ED86F7F0ED96F7F0EDA6F7F0EDB6FDE
:10012000020EDC6F040EDD6F100EDE6F400EDF6F0F
:10013000000ED76F820ED66F050E0201056F000EFE
:10014000506E000E4F6E000E4F24D96E170E5020C9
:10015000DA6EDF6A4F4A502A200E505CD8A0F3D7DF
:10016000550E0401596FAA0E596F5991080E5D6F13
:10017000000E5E6F000E5F6F550E596FAA0E596F1D
:100180005981000E016E0F0EE2EC84F0000E016E3C
:100190000A0EE2EC84F0070E016E0B0EE2EC84F026
:1001A000010E016E0C0EE2EC84F0000E016E090EE1
:1001B000E2EC84F06CEC85F0CEAAFED7CEBAFED786
:1001C0000001D787000E0201056F010E0501666F61
:1001D000040E646FBE94D68EC282000E576E000E5F
:1001E000566EBE88BE88BE98BE98BE88BE88BE9831
:1001F000BE98BE88BE88BE98BE98D1C45BF5CFC4F9
:100200005AF5D2A05BD0000EC86E0001D4A113D065
:10021000000E5A244D6E400E5B204E6EC90E4D24CA
:10022000F66EBF0E4E20F76EF86A000EF822080038
:10023000F5C4C0F42FD0D4A305D0000E5A24D96E33
:10024000170E22D0180E5A1807E1800E5B18D8A49A
:1002500003D0B7C4C0F41ED0190E5A1807E1800E9F
:100260005B18D8A403D0C7C2C0F414D0900E5B5C56
:10027000D8A00FD0200E5A5C900E5B58D8B009D091
:10028000600E5A24D96E750E5B20DA6EDF50C06E98
:1002900001D0C06856505710D8A40AD05AC558F596
:1002A0005BC559F5D0C45FF5000E576E010E566E52
:1002B000BE88BE88BE98BE98C868A8D00001D4A3E6
:1002C00009D0000E5A24D96E170E5B20DA6ED0C406
:1002D000DFF498D0190E5A1807E1800E5B18D8A4E5
:1002E00003D0D0C4C9F28ED0900E5B5CD8A08AD067
:1002F000200E5A5C900E5B58D8B084D0600E5A2401
:10030000D96E750E5B20DA6ED0C4DFF4900E5B5CA4
:10031000D8A00DD0040E5A5C900E5B58D8B007D010
:10032000F4EC85F0030E0501646F000E666F040E99
:100330005A185CE1900E5B18D8B43DD057D06CECE5
:1003400085F0000E0501666F51D0000E516E070E4C
:10035000516401D0F6D751507708D96E000ED8A05D
:10036000E82A0508DA6EDF50016E5128E2EC84F0CD
:10037000512AEDD7000E516E070E516401D0E1D71E
:1003800051507F08D96E000ED8A0E82A0508DA6E11
:10039000DF50016E5128E2EC84F0512AEDD7F4ECE5
:1003A00085F0CFD7BE94000E576E000E566E1ED04D
:1003B00043EC85F0C6D7050164514D6E4E6A4E5030
:1003C000000AD8A413D04D50000AD8B4B8D7010AF7
:1003D000D8B4BBD7030AD8B4CDD7010AD8B4DFD775
:1003E000070AD8B4DFD7FB0AD8B4E2D7050E5A18EB
:1003F00009E1900E5B18D8A405D065C501F50A0E79
:10040000E2EC84F0BE88BE88BE98BE98CEA6E9D63F
:10041000050E0201056F040146ABFDD746BBFED7B2
:100420000001D797050166A10CD058C507F559C53D
:1004300008F55FC509F5000E0B6E000E0A6E62EC42
:1004400084F0050166A30DD0D90E456EFF0E466EF1
:1004500058C547F559C548F55FC549F54A6A09ECDD
:1004600086F0CEAAFED7CEBAFED70001D787000EFF
:100470000201056FBE84BE88BE88BE98BE98BE8845
:10048000BE88BE98BE98BE88BE88BE98BE98BE88FC
:10049000BE88BE98BE9805016651D8A4BE94BE8899
:1004A000BE88BE98BE98BE88BE88BE98BE98BE88DC
:1004B000BE88BE98BE98BE88BE88BE98BE98BE88CC
:1004C000BE88BE98BE98BE88BE88BE98BE98BE88BC
:1004D000BE88BE98BE98BE88BE88BE98BE987DD69F
:1004E0002FC5D9F430C5DAF4DEC4F6F4DDC4F7F470
:1004F000000EF86E0800F550250AD8A4ACD02FC520
:10050000D9F430C5DAF4DE2A000EDD22000E536E77
:10051000000E526E52C55CF554685568000E3A6E76
:10052000000E0CD05C822FC5D9F430C5DAF4DE2A77
:10053000000EDD221CD0000E3A6E010E396E17D06F
:100540002FC5D9F430C5DAF4DEC4F6F4DDC4F7F40F
:10055000000EF86E0800F550336E346A3450000A0D
:10056000D8A4E9D73350300AD8B4DCD7E4D739500F
:100570003A10D8B4E5D72FC507F530C508F531C511
:1005800009F532C50AF5B6EC83F007C552F508C582
:1005900053F553AE05D05C80526C531ED8B0532A2D
:1005A0002FC5D9F430C5DAF4DEC43BF5DDC43CF523
:1005B0003BC5F6F43CC5F7F4000EF86E0800F550A4
:1005C000580AD8A440D031C5D9F432C5DAF4DFC412
:1005D00033F5020EDE26DFC434F5000EDD2233C50E
:1005E000D9F434C5DAF4DEC435F5DDC436F5010ED0
:1005F0003B24336E000E3C20346E2FC5D9F430C539
:10060000DAF433C5DEF434C5DDF40BD02DC51DF5A9
:100610002EC51EF535C51FF536C520F540EC83F017
:1006200012003BC5F6F43CC5F7F4000EF86E080066
:10063000F550336E346A3450000AD8A404D03350D5
:10064000580AD8B4E3D72FC5D9F430C5DAF4DE2A76
:10065000000EDD2212002FC5D9F430C5DAF4DEC455
:10066000F6F4DDC4F7F4000EF86E0800F550026EE3
:10067000036A2DC504F52EC505F512EC84F0E3D709
:1006800055AE5C9255AE05D0000E276E010E266E5B
:1006900004D054C526F555C527F552C528F553C5D0
:1006A00029F5000E2B6E1F0E2A6E000E05019F6F9E
:1006B00030D02A06D8A02B061F500F0B2C6E090E27
:1006C0002C6402D0370E01D0300E2C24246E256A03
:1006D000000E252224C52CF5800E2A24D96E050E85
:1006E0002B20DA6E2CC5DFF42606D8A027062806B4
:1006F000D8A029061FC521F520C522F5040E236EBA
:10070000D89022322132232EFBD721C51FF522C5D6
:1007100020F52BBE1AD02B5004E1020E2A5CD8A083
:1007200014D01F502010D8A4C4D727BE05D02750FE
:10073000C0E12604D8B0BDD729BE07D0295003E1B7
:100740002804D8A002D05CB2B4D71DC512F51EC5CE
:1007500013F5800E2A24146E050E2B20156E28C565
:1007600016F529C517F5A3EC84F01200000E0F6EE4
:10077000000E0E6E07C5D9F408C5DAF4DEC4F6F42F
:10078000DDC4F7F4000EF86E0800F5502A0AD8A46C
:1007900033D007C5D9F408C5DAF4DE2A000EDD220D
:1007A00009C5D9F40AC5DAF4DFC40BF5020EDE265A
:1007B000DFC40CF5000EDD220BC5D9F40CC5DAF44C
:1007C000DEC40EF5DDC40FF528D00EC501F50FC54A
:1007D00002F5000E046E0A0E036E1CEC86F00D503E
:1007E00001240E6E000E02200F6E07C5D9F408C555
:1007F000DAF4DE2A000EDD2207C5D9F408C5DAF4E2
:10080000DEC4F6F4DDC4F7F4000EF86E0800F5500F
:10081000D00F0D6E090E0D64D8D70EC507F50FC5A4
:1008200008F5120004500510D8B404D00450051087
:10083000D8A404D002502FEC86F0120020EE0AF06B
:100840000450D9260550DA22DE50DE10D8B416D076
:1008500020EE0AF00450D9260550DA2210EE03F0FB
:100860000450E1260550E222DE50E65CE650800AA4
:100870000A6EDE50800A0A58D8B0120020EE03F04B
:100880000450D9260550DA22DEC406F5DDC407F58A
:1008900004C5D9F405C5DAF4DEC408F5DDC409F5EC
:1008A00006500824D96E07500920DA6E02C5DFF41D
:1008B00020EE03F00450D9260550DA22DE2A000E7D
:1008C000DD22120008C55EF55EC505F5000E17ECC9
:1008D00085F007C55EF55EC505F5010E17EC85F0E0
:1008E0000A500B10D8B40BD0800E016E040EE2EC4F
:1008F00084F0800E016E030EE2EC84F00AD0000E4C
:10090000016E040EE2EC84F0000E016E030EE2ECC8
:1009100084F009C505F5030E17EC85F0050E0201FC
:10092000056F0001D4A9FDD7D4B9FED7D7970D0E16
:100930000D6E2D0E0C6ED80EE82EFED70C2EFCD7A9
:100940000D2EFAD712005CA00AD014C50BF515C500
:100950000CF512C50DF513C50EF5D8EC85F017BED4
:1009600005D016C51BF517C51CF504D0000E1C6E6E
:10097000000E1B6E000E1A6E000E196E0CD0000ECB
:10098000036E200E026E12C504F513C505F512ECB8
:1009900084F0194A1A2A1B50195C1A50800A186EE2
:1009A0001C50800A1858D8A0EAD75CB0120014C5B1
:1009B0000BF515C50CF512C50DF513C50EF5D8ECE4
:1009C00085F01200026EC294BE92000E046E000EFC
:1009D000036EBE9002AE02D0C28401D0C294BE802B
:1009E00002500224026E034A042A04BEF2D70450C5
:1009F00004E1080E035CD8A0ECD7000E046E000ED4
:100A0000036EBE9001AE02D0C28401D0C294BE80FB
:100A100001500124016E034A042A04BEF2D7045097
:100A200004E1080E035CD8A0ECD7BE821200066E6B
:100A300005500F0B5D6EC90E5D24F66EF76AFF0E52
:100A4000F722F86A000EF8220800F5C401F50650F6
:100A5000FE0DF350070FE2EC84F005380F0B5D6ECE
:100A6000C90E5D24F66EF76AFF0EF722F86A000ED3
:100A7000F8220800F5C401F50650FE0DF350080FEA
:100A8000E2EC84F01200FF0E016E010EE2EC84F045
:100A9000FF0E016E020EE2EC84F0FF0E016E030EFB
:100AA000E2EC84F0FF0E016E040EE2EC84F0FF0E27
:100AB000016E050EE2EC84F0FF0E016E060EE2EC14
:100AC00084F0FF0E016E070EE2EC84F0FF0E016E63
:100AD000080EE2EC84F01200000E016E010EE2EC52
:100AE00084F0000E016E020EE2EC84F0000E016E46
:100AF000030EE2EC84F0000E016E040EE2EC84F0D2
:100B0000000E016E050EE2EC84F0000E016E060E82
:100B1000E2EC84F0000E016E070EE2EC84F0000EB1
:100B2000016E080EE2EC84F012003FC543F540C5AB
:100B300044F50ED03DC52DF53EC52EF5430E2F6E66
:100B4000050E306E41C531F542C532F570EC82F0CC
:100B500043C5F6F444C5F7F4000EF86E0800F550EE
:100B60000009D8A4E7D7000E3E6E000E3D6E1200BD
:100B700005EE00F318EE00F0EE6AE550E150FCE1FE
:100B8000E250FAE101EE60F1400EEE6AE806FDE1A6
:100B900001EE52F10E0EEE6AE806FDE10401080EC8
:100BA0005D6F000E5E6F000E5F6F000100EF80F062
:100BB000000E116E000E106E0BD00FC502F5036A09
:100BC0000DC504F50EC505F512EC84F0104A112A86
:100BD00010500B24D96E11500C20DA6EDF500F6EBE
:100BE0000F50D8B41200E9D760C505F5000E17EC18
:100BF00085F061C505F5010E17EC85F062C505F5B8
:100C0000020E17EC85F063C505F5030E17EC85F0B1
:100C10001200470E4B6E050E4C6E000E3D6E000E20
:100C20003E6E45C53FF546C540F54B0E416E050E7F
:100C3000426E95EC85F0120001500302F3C405F5F5
:100C4000F4C406F501500402F350062602500302D4
:100C5000F350062605C501F506C502F51200016E22
:0A0C6000B7A2FED701C5C9F21200C9
:020C6C00110075
:020000040020DA
:10000000FFFFFFFFFFFFFFFFFFFFFFFFFFFFFFFF00
:10001000FFFFFFFFFFFFFFFFFFFFFFFFFFFFFFFFF0
:10002000FFFFFFFFFFFFFFFFFFFFFFFFFFFFFFFFE0
:10003000FFFFFFFFFFFFFFFFFFFFFFFFFFFFFFFFD0
:020000040030CA
:100000008C2FFFF79FFFFFFFFFFFFFFFFFFFFFFFAB
:10001000FFFFFFFFFFFFFFFFFFFFFFFFFFFFFFFFF0
:03002000FFFFFFE0
:00000001FF
